:020000040000FA
:39000000FFFF62FF3600FFFFFFFFFFFFFFFFFFFFFFFFFFFFFFFFFFFFFFFFFFFFFFFFFFFFFFFFFFFFFFFFFFFFFFFFFFFFFFFFFFFFFFFFFFFFFFFFFFFFFF65
:39003900000C90013000069A0019680260020C802C32000600000000000000000000000000000000300006C00018000360000C8001300006C0001800B28E
:390072000012E00248000950012E4005D0011240055C0009000000000000000000000000000000004800092001248004900012400248000920012400B17A
:3900AB000000000000000000000000000000000000000000000000000000000000000000000000000000000000000000000000000000000000000080F9A3
:3900E4000000000000000000000000000000000000000000000000000000000000000000000000000000000000000000000000000000000000000080F96A
:39011D000000200000000000000200000001000000040000000000000000000000000000000000000000000000000000000000000000000000000080EF13
:390156000000800400000000000001000400000000140000000000000000000000000100000000000000000000000000000000000000000000000000E4EE
:39018F000000000000000000000000000000000000000000000000000000000000000000000000000000000000000000000000000000000000000080F9BE
:3901C8000000000000000000000000000000000000000000000000000000000000000000000000000000000000000000000000000000000000000080F985
:390201000000000000000000000000000000000000000000000000000000000000000000000000000000000000000000000000000000000000000080F94B
:39023A000000000000000000000000000000000000000000000000000000000000000000000000000000000000000000000000000000000000000080F912
:390273000000000000000000000000000000000000000000000000000000000000000000000000000000000000000000000000000000000000000080F9D9
:3902AC000000000000000000000000000000000000000000000000000000000000000000000000000000000000000000000000000000000000000080F9A0
:3902E5000000000000000000000000000000000000000000000000000000000000000000000000000000000000000000000000000000000000000080F967
:39031E000000000000000000000000000000000000000000000000000000000000000000000000000000000000000000000000000000000000000080F92D
:390357000000000000000000000000000000000000000000000000000000000000000000000000000000000000000000000000000000000000000080F9F4
:390390000000000000000000000000000000000000000000000000000000000000000000000000000000000000000000000000000000000000000080F9BB
:3903C9000000000000000000000000000000000000000000000000000000000000000000000000000000000000000000000000000000000000000080F982
:390402000800000000000000000000000000000000000000000000000000000000000000000000000000000000000000000000000000000000000020DBBE
:39043B000000000000000000000000000000000000000000000000000000000000000000000000000000000000000000000000000000000000000080F90F
:390474000000000000000000000000000000000000000000000000000000000000000000000000000000000000000000000000000000000000000080F9D6
:3904AD000400000000000000000000000000000000000000000000000000000000000000000000000000000000000000000000000000000000000090ACD6
:3904E6000000000000000000000000000000000000000000000000000000000000000000000000000000000000000000000000000000000000000080F964
:39051F000000000000000000000000000000000000000000000000000000000000000000000000000000000000000000000000000000000000000080F92A
:390558000000000000000000000000000000000000000000000000000000000000000000000000000000000000000000000000000000000000000080F9F1
:390591000000000000000000000000000000000000000000000000000000000000000000000000000000000000000000000000000000000000000080F9B8
:3905CA000800000000000000000000000000000000000000000000000000000000000000000000000000000000000000000000000000000000000020DBF5
:390603000000000000000000000000000000000000000000000000000000000000000000000000000000000000000000000000000000000000000080F945
:39063C000000000000000000000000000000000000000000000000000000000000000000000000000000000000000000000000000000000000000080F90C
:390675000400000000000000000000000000000000000000000000000000000000000000000000000000000000000000000000000000000000000090AC0C
:3906AE000000000000000000000000000000000000000000000000000000000000000000000000000000000000000000000000000000000000000080F99A
:3906E7000000000000000000000000000000000000000000000000000000000000000000000000000000000000000000000000000000000000000080F961
:390720000000000000000000000000000000000000000000000000000000000000000000000000000000000000000000000000000000000000000080F927
:390759000000000000000000000000000000000000000000000000000000000000000000000000000000000000000000000000000000000000000080F9EE
:390792000800000000000000000000000000000000000000000000000000000000000000000000000000000000000000000000000000000000000020DB2B
:3907CB000000000000000000000000000000000000000000000000000000000000000000000000000000000000000000000000000000000000000080F97C
:390804000000000000000000000000000000000000000000000000000000000000000000000000000000000000000000000000000000000000000080F942
:39083D000400000000000000000000000000000000000000000000000000000000000000000000000000000000000000000000000000000000000090AC42
:390876000000000000000000000000000000000000000000000000000000000000000000000000000000000000000000000000000000000000000080F9D0
:3908AF000000000000000000000000000000000000000000000000000000000000000000000000000000000000000000000000000000000000000080F997
:3908E8000000000000000000000000000000000000000000000000000000000000000000000000000000000000000000000000000000000000000080F95E
:390921000000000000000000000000000000000000000000000000000000000000000000000000000000000000000000000000000000000000000080F924
:39095A000800000000000000000000000000000000000000000000000000000000000000000000000000000000000000000000000000000000000020DB61
:390993000000000000000000000000000000000000000000000000000000000000000000000000000000000000000000000000000000000000000080F9B2
:3909CC000000000000000000000000000000000000000000000000000000000000000000000000000000000000000000000000000000000000000080F979
:390A05000400000000000000000000000000000000000000000000000000000000000000000000000000000000000000000000000000000000000090AC78
:390A3E000000000000000000000000000000000000000000000000000000000000000000000000000000000000000000000000000000000000000080F906
:390A77000000000000000000000000000000000000000000000000000000000000000000000000000000000000000000000000000000000000000080F9CD
:390AB0000000000000000000000000000000000000000000000000000000000000000000000000000000000000000000000000000000000000000080F994
:390AE9000000000000000000000000000000000000000000000000000000000000000000000000000000000000000000000000000000000000000080F95B
:390B22000800000000000000000000000000000000000000000000000000000000000000000000000000000000000000000000000000000000000020DB97
:390B5B000000000000000000000000000000000000000000000000000000000000000000000000000000000000000000000000000000000000000080F9E8
:390B94000000000000000000000000000000000000000000000000000000000000000000000000000000000000000000000000000000000000000080F9AF
:390BCD000400000000000000000000000000000000000000000000000000000000000000000000000000000000000000000000000000000000000090ACAF
:390C06000000000000000000000000000000000000000000000000000000000000000000000000000000000000000000000000000000000000000080F93C
:390C3F000000000000000000000000000000000000000000000000000000000000000000000000000000000000000000000000000000000000000080F903
:390C78000000000000000000000000000000000000000000000000000000000000000000000000000000000000000000000000000000000000000080F9CA
:390CB1000000000000000000000000000000000000000000000000000000000000000000000000000000000000000000000000000000000000000080F991
:390CEA000800000000000000000000000000000000000000000000000000000000000000000000000000000000000000000000000000000000000020DBCE
:390D23000000000000000000000000000000000000000000000000000000000000000000000000000000000000000000000000000000000000000080F91E
:390D5C000000000000000000000000000000000000000000000000000000000000000000000000000000000000000000000000000000000000000080F9E5
:390D95000400000000000000000000000000000000000000000000000000000000000000000000000000000000000000000000000000000000000090ACE5
:390DCE000000000000000000000000000000000000000000000000000000000000000000000000000000000000000000000000000000000000000080F973
:390E07000000000000000000000000000000000000000000000000000000000000000000000000000000000000000000000000000000000000000080F939
:390E40000000000000000000000000000000000000000000000000000000000000000000000000000000000000000000000000000000000000000080F900
:390E79000000000000000000000000000000000000000000000000000000000000000000000000000000000000000000000000000000000000000080F9C7
:390EB2000800000000000000000000000000000000000000000000000000000000000000000000000000000000000000000000000000000000000020DB04
:390EEB000000000000000000000000000000000000000000000000000000000000000000000000000000000000000000000000000000000000000080F955
:390F24000000000000000000000000000000000000000000000000000000000000000000000000000000000000000000000000000000000000000080F91B
:390F5D000400000000000000000000000000000000000000000000000000000000000000000000000000000000000000000000000000000000000090AC1B
:390F96000000000000000000000000000000000000000000000000000000000000000000000000000000000000000000000000000000000000000080F9A9
:390FCF000000000000000000000000000000000000000000000000000000000000000000000000000000000000000000000000000000000000000080F970
:391008002000048000100002400008000120000480001000000000000000000000000000000000800010000240000800012000048000100002400080F9B2
:391041000000000000000000000000000000000000000000000000000000000000000000000000000000000000000000000000000000000000000080F9FD
:39107A002800048000100002400008000120000480001000000000000000000000000000000000800010000240000800012000048000100002400020DBB6
:3910B3000000000000000000000000000000000000000000000000000000000000000000000000000000000000000000000000000000000000000080F98B
:3910EC002000048000100002400008000120000480001000000000000000000000000000000000800010000240000800012000048000100002400080F9CE
:391125000400000000000000000000000000000000000000000000000000000000000000000000000000000000000000000000000000000000000090AC51
:39115E002000048000100002400008000120000480001000000000000000000000000000000000800010000240000800012000048000100002400080F95B
:391197000000000000000000000000000000000000000000000000000000000000000000000000000000000000000000000000000000000000000080F9A6
:3911D0000000000000000000000000000000000000000000000000000000000000000000000000000000000000000000000000000000000000000080F96D
:391209000000000000000000000000000000000000000000000000000000000000000000000000000000000000000000000000000000000000000080F933
:391242000000000000000000000000000000000000000000000000000000000000000000000000000000000000000000000000000000000000000080F9FA
:39127B000000000000000000000000000000000000000000000000000000000000000000000000000000000000000000000000000000000000000080F9C1
:3912B4000000000000000000000000000000000000000000000000000000000000000000000000000000000000000000000000000000000000000080F988
:3912ED000000000000000000000000000000000000000000000000000000000000000000000000000000000000000000000000000000000000000080F94F
:391326000000000000000000000000000000000000000000000000000000000000000000000000000000000000000000000000000000000000000080F915
:39135F000000000000000000000000000000000000000000000000000000000000000000000000000000000000000000000000000000000000000080F9DC
:391398000000000000000000000000000000000000000000000000000000000000000000000000000000000000000000000000000000000000000080F9A3
:3913D1000000000000000000000000000000000000000000000000000000000000000000000000000000000000000000000000000000000000000080F96A
:39140A000000000000000000000000000000000000000000000000000000000000000000000000000000000000000000000000000000000000000080F930
:391443000000000000000000000000000000000000000000000000000000000000000000000000000000000000000000000000000000000000000080F9F7
:39147C000000000000000000000000000000000000000000000000000000000000000000000000000000000000000000000000000000000000000080F9BE
:3914B5000000000000000000000000000000000000000000000000000000000000000000000000000000000000000000000000000000000000000080F985
:3914EE000000000000000000000000000000000000000000000000000000000000000000000000000000000000000000000000000000000000000080F94C
:391527000000000000000000000000000000000000000000000000000000000000000000000000000000000000000000000000000000000000000080F912
:391560000000000000000000000000000000000000000000000000000000000000000000000000000000000000000000000000000000000000000080F9D9
:391599000000000000000000000000000000000000000000000000000000000000000000000000000000000000000000000000000000000000000080F9A0
:3915D2000000000000000000000000000000000000000000000000000000000000000000000000000000000000000000000000000000000000000080F967
:39160B000000000000000000000000000000000000000000000000000000000000000000000000000000000000000000000000000000000000000080F92D
:391644000000000000000000000000000000000000000000000000000000000000000000000000000000000000000000000000000000000000000080F9F4
:39167D000000000000000000000000000000000000000000000000000000000000000000000000000000000000000000000000000000000000000080F9BB
:3916B6000000000000000000000000000000000000000000000000000000000000000000000000000000000000000000000000000000000000000080F982
:3916EF000000000000000000000000000000000000000000000000000000000000000000000000000000000000000000000000000000000000000080F949
:391728000000000000000000000000000000000000000000000000000000000000000000000000000000000000000000000000000000000000000080F90F
:391761000000000000000000000000000000000000000000000000000000000000000000000000000000000000000000000000000000000000000080F9D6
:39179A000000000000000000000000000000000000000000000000000000000000000000000000000000000000000000000000000000000000000080F99D
:3917D3000000000000000000000000000000000000000000000000000000000000000000000000000000000000000000000000000000000000000080F964
:39180C000000000000000000000000000000000000000000000000000000000000000000000000000000000000000000000000000000000000000080F92A
:391845000000000000000000000000000000000000000000000000000000000000000000000000000000000000000000000000000000000000000080F9F1
:39187E000000000000000000000000000000000000000000000000000000000000000000000000000000000000000000000000000000000000000080F9B8
:3918B7000000000000000000000000000000000000000000000000000000000000000000000000000000000000000000000000000000000000000080F97F
:3918F0000000000000000000000000000000000000000000000000000000000000000000000000000000000000000000000000000000000000000080F946
:391929000000000000000000000000000000000000000000000000000000000000000000000000000000000000000000000000000000000000000080F90C
:391962000000000000000000000000000000000000000000000000000000000000000000000000000000000000000000000000000000000000000080F9D3
:39199B000000000000000000000000000000000000000000000000000000000000000000000000000000000000000000000000000000000000000080F99A
:3919D4000000000000000000000000000000000000000000000000000000000000000000000000000000000000000000000000000000000000000080F961
:391A0D000000000000000000000000000000000000000000000000000000000000000000000000000000000000000000000000000000000000000080F927
:391A46000000000000000000000000000000000000000000000000000000000000000000000000000000000000000000000000000000000000000080F9EE
:391A7F000000000000000000000000000000000000000000000000000000000000000000000000000000000000000000000000000000000000000080F9B5
:391AB8000000000000000000000000000000000000000000000000000000000000000000000000000000000000000000000000000000000000000080F97C
:391AF1000000000000000000000000000000000000000000000000000000000000000000000000000000000000000000000000000000000000000080F943
:391B2A000000000000000000000000000000000000000000000000000000000000000000000000000000000000000000000000000000000000000080F909
:391B63000000000000000000000000000000000000000000000000000000000000000000000000000000000000000000000000000000000000000080F9D0
:391B9C000000000000000000000000000000000000000000000000000000000000000000000000000000000000000000000000000000000000000080F997
:391BD5000000000000000000000000000000000000000000000000000000000000000000000000000000000000000000000000000000000000000080F95E
:391C0E000000000000000000000000000000000000000000000000000000000000000000000000000000000000000000000000000000000000000080F924
:391C47000000000000000000000000000000000000000000000000000000000000000000000000000000000000000000000000000000000000000080F9EB
:391C80000000000000000000000000000000000000000000000000000000000000000000000000000000000000000000000000000000000000000080F9B2
:391CB9000000000000000000000000000000000000000000000000000000000000000000000000000000000000000000000000000000000000000080F979
:391CF2000800000000000000000000000000000000000000000000000000000000000000000000000000000000000000000000000000000000000020DBB6
:391D2B000000000000000000000000000000000000000000000000000000000000000000000000000000000000000000000000000000000000000080F906
:391D64000000000000000000000000000000000000000000000000000000000000000000000000000000000000000000000000000000000000000080F9CD
:391D9D000400000000000000000000000000000000000000000000000000000000000000000000000000000000000000000000000000000000000090ACCD
:391DD6000000000000000000000000000000000000000000000000000000000000000000000000000000000000000000000000000000000000000080F95B
:391E0F000000000000000000000000000000000000000000000000000000000000000000000000000000000000000000000000000000000000000080F921
:391E48000000000000000000000000000000000000000000000000000000000000000000000000000000000000000000000000000000000000000080F9E8
:391E81000000000000000000000000000000000000000000000000000000000000000000000000000000000000000000000000000000000000000080F9AF
:391EBA000800000000000000000000000000000000000000000000000000000000000000000000000000000000000000000000000000000000000020DBEC
:391EF3000000000000000000000000000000000000000000000000000000000000000000000000000000000000000000000000000000000000000080F93D
:391F2C000000000000000000000000000000000000000000000000000000000000000000000000000000000000000000000000000000000000000080F903
:391F65000400000000000000000000000000000000000000000000000000000000000000000000000000000000000000000000000000000000000090AC03
:391F9E000000000000000000000000000000000000000000000000000000000000000000000000000000000000000000000000000000000000000080F991
:391FD7000000000000000000000000000000000000000000000000000000000000000000000000000000000000000000000000000000000000000080F958
:392010000000000000000000000000000000000000000000000000000000000000000000000000000000000000000000000000000000000000000080F91E
:392049000000000000000000000000000000000000000000000000000000000000000000000000000000000000000000000000000000000000000080F9E5
:392082000800000000000000000000000000000000000000000000000000000000000000000000000000000000000000000000000000000000000020DB22
:3920BB000000000000000000000000000000000000000000000000000000000000000000000000000000000000000000000000000000000000000080F973
:3920F4000000000000000000000000000000000000000000000000000000000000000000000000000000000000000000000000000000000000000080F93A
:39212D000400000000000000000000000000000000000000000000000000000000000000000000000000000000000000000000000000000000000090AC39
:392166000000000000000000000000000000000000000000000000000000000000000000000000000000000000000000000000000000000000000080F9C7
:39219F000000000000000000000000000000000000000000000000000000000000000000000000000000000000000000000000000000000000000080F98E
:3921D8000000000000000000000000000000000000000000000000000000000000000000000000000000000000000000000000000000000000000080F955
:392211000000000000000000000000000000000000000000000000000000000000000000000000000000000000000000000000000000000000000080F91B
:39224A000800000000000000000000000000000000000000000000000000000000000000000000000000000000000000000000000000000000000020DB58
:392283000000000000000000000000000000000000000000000000000000000000000000000000000000000000000000000000000000000000000080F9A9
:3922BC000000000000000000000000000000000000000000000000000000000000000000000000000000000000000000000000000000000000000080F970
:3922F5000400000000000000000000000000000000000000000000000000000000000000000000000000000000000000000000000000000000000090AC70
:39232E000000000000000000000000000000000000000000000000000000000000000000000000000000000000000000000000000000000000000080F9FD
:392367000000000000000000000000000000000000000000000000000000000000000000000000000000000000000000000000000000000000000080F9C4
:3923A0000000000000000000000000000000000000000000000000000000000000000000000000000000000000000000000000000000000000000080F98B
:3923D9000000000000000000000000000000000000000000000000000000000000000000000000000000000000000000000000000000000000000080F952
:392412000800000000000000000000000000000000000000000000000000000000000000000000000000000000000000000000000000000000000020DB8E
:39244B000000000000000000000000000000000000000000000000000000000000000000000000000000000000000000000000000000000000000080F9DF
:392484000000000000000000000000000000000000000000000000000000000000000000000000000000000000000000000000000000000000000080F9A6
:3924BD000400000000000000000000000000000000000000000000000000000000000000000000000000000000000000000000000000000000000090ACA6
:3924F6000000000000000000000000000000000000000000000000000000000000000000000000000000000000000000000000000000000000000080F934
:39252F000000000000000000000000000000000000000000000000000000000000000000000000000000000000000000000000000000000000000080F9FA
:392568000000000000000000000000000000000000000000000000000000000000000000000000000000000000000000000000000000000000000080F9C1
:3925A1000000000000000000000000000000000000000000000000000000000000000000000000000000000000000000000000000000000000000080F988
:3925DA000800000000000000000000000000000000000000000000000000000000000000000000000000000000000000000000000000000000000020DBC5
:392613000000000000000000000000000000000000000000000000000000000000000000000000000000000000000000000000000000000000000080F915
:39264C000000000000000000000000000000000000000000000000000000000000000000000000000000000000000000000000000000000000000080F9DC
:392685000400000000000000000000000000000000000000000000000000000000000000000000000000000000000000000000000000000000000090ACDC
:3926BE000000000000000000000000000000000000000000000000000000000000000000000000000000000000000000000000000000000000000080F96A
:3926F7000000000000000000000000000000000000000000000000000000000000000000000000000000000000000000000000000000000000000080F931
:392730000000000000000000000000000000000000000000000000000000000000000000000000000000000000000000000000000000000000000080F9F7
:392769000000000000000000000000000000000000000000000000000000000000000000000000000000000000000000000000000000000000000080F9BE
:3927A2000800000000000000000000000000000000000000000000000000000000000000000000000000000000000000000000000000000000000020DBFB
:3927DB000000000000000000000000000000000000000000000000000000000000000000000000000000000000000000000000000000000000000080F94C
:392814000000000000000000000000000000000000000000000000000000000000000000000000000000000000000000000000000000000000000080F912
:39284D000400000000000000000000000000000000000000000000000000000000000000000000000000000000000000000000000000000000000090AC12
:392886000000000000000000000000000000000000000000000000000000000000000000000000000000000000000000000000000000000000000080F9A0
:3928BF000000000000000000000000000000000000000000000000000000000000000000000000000000000000000000000000000000000000000080F967
:3928F8002000048000100002400008000120000480001000000000000000000000000000000000800010000240000800012000048000100002400080F9AA
:392931000000000000000000000000000000000000000000000000000000000000000000000000000000000000000000000000000000000000000080F9F4
:39296A002800048000100002400008000120000480001000000000000000000000000000000000800010000240000800012000048000100002400020DBAD
:3929A3000000000000000000000000000000000000000000000000000000000000000000000000000000000000000000000000000000000000000080F982
:3929DC002000048000100002400008000120000480001000000000000000000000000000000000800010000240000800012000048000100002400080F9C5
:392A15000400000000000000000000000000000000000000000000000000000000000000000000000000000000000000000000000000000000000090AC48
:392A4E002000048000100002400008000120000480001000000000000000000000000000000000800010000240000800012000048000100002400080F952
:392A87000000000000000000000000000000000000000000000000000000000000000000000000000000000000000000000000000000000000000080F99D
:392AC0000000000000000000000000000000000000000000000000000000000000000000000000000000000000000000000000000000000000000080F964
:392AF9000000000000000000000000000000000000000000000000000000000000000000000000000000000000000000000000000000000000000080F92B
:392B32000000000000000000000000000000000000000000000000000000000000000000000000000000000000000000000000000000000000000080F9F1
:392B6B000000000000000000000000000000000000000000000000000000000000000000000000000000000000000000000000000000000000000080F9B8
:392BA4000000000000000000000000000000000000000000000000000000000000000000000000000000000000000000000000000000000000000080F97F
:392BDD000000000000000000000000000000000000000000000000000000000000000000000000000000000000000000000000000000000000000080F946
:392C16000000000000000000000000000000000000000000000000000000000000000000000000000000000000000000000000000000000000000080F90C
:392C4F000000000000000000000000000000000000000000000000000000000000000000000000000000000000000000000000000000000000000080F9D3
:392C88000000000000000000000000000000000000000000000000000000000000000000000000000000000000000000000000000000000000000080F99A
:392CC1000000000000000000000000000000000000000000000000000000000000000000000000000000000000000000000000000000000000000080F961
:392CFA000000000000000000000000000000000000000000000000000000000000000000000000000000000000000000000000000000000000000080F928
:392D33000000000000000000000000000000000000000000000000000000000000000000000000000000000000000000000000000000000000000080F9EE
:392D6C000000000000000000000000000000000000000000000000000000000000000000000000000000000000000000000000000000000000000080F9B5
:392DA5000000000000000000000000000000000000000000000000000000000000000000000000000000000000000000000000000000000000000080F97C
:392DDE000000000000000000000000000000000000000000000000000000000000000000000000000000000000000000000000000000000000000080F943
:392E17000000000000000000000000000000000000000000000000000000000000000000000000000000000000000000000000000000000000000080F909
:392E50000000000000000000000000000000000000000000000000000000000000000000000000000000000000000000000000000000000000000080F9D0
:392E89000000000000000000000000000000000000000000000000000000000000000000000000000000000000000000000000000000000000000080F997
:392EC2000000000000000000000000000000000000000000000000000000000000000000000000000000000000000000000000000000000000000080F95E
:392EFB000000000000000000000000000000000000000000000000000000000000000000000000000000000000000000000000000000000000000080F925
:392F34000000000000000000000000000000000000000000000000000000000000000000000000000000000000000000000000000000000000000080F9EB
:392F6D000000000000000000000000000000000000000000000000000000000000000000000000000000000000000000000000000000000000000080F9B2
:392FA6000000000000000000000000000000000000000000000000000000000000000000000000000000000000000000000000000000000000000080F979
:392FDF000000000000000000000000000000000000000000000000000000000000000000000000000000000000000000000000000000000000000080F940
:393018000000000000000000000000000000000000000000000000000000000000000000000000000000000000000000000000000000000000000080F906
:393051000000000000000000000000000000000000000000000000000000000000000000000000000000000000000000000000000000000000000080F9CD
:39308A000000000000000000000000000000000000000000000000000000000000000000000000000000000000000000000000000000000000000080F994
:3930C3000000000000000000000000000000000000000000000000000000000000000000000000000000000000000000000000000000000000000080F95B
:3930FC000000000000000000000000000000000000000000000000000000000000000000000000000000000000000000000000000000000000000080F922
:393135000000000000000000000000000000000000000000000000000000000000000000000000000000000000000000000000000000000000000080F9E8
:39316E000000000000000000000000000000000000000000000000000000000000000000000000000000000000000000000000000000000000000080F9AF
:3931A7000000000000000000000000000000000000000000000000000000000000000000000000000000000000000000000000000000000000000080F976
:3931E0000000000000000000000000000000000000000000000000000000000000000000000000000000000000000000000000000000000000000080F93D
:393219000000000000000000000000000000000000000000000000000000000000000000000000000000000000000000000000000000000000000080F903
:393252000000000000000000000000000000000000000000000000000000000000000000000000000000000000000000000000000000000000000080F9CA
:39328B000000000000000000000000000000000000000000000000000000000000000000000000000000000000000000000000000000000000000080F991
:3932C4000000000000000000000000000000000000000000000000000000000000000000000000000000000000000000000000000000000000000080F958
:3932FD000000000000000000000000000000000000000000000000000000000000000000000000000000000000000000000000000000000000000080F91F
:393336000000000000000000000000000000000000000000000000000000000000000000000000000000000000000000000000000000000000000080F9E5
:39336F00000004020000000A41A068008100003400001008000000000000000000000000000000000000000040100100000000008000000000000000C866
:3933A8000000200800000010100000000802000000008020000000000000000000000000000000000000000000020000000000000000000000000080D0A8
:3933E1000000101000000000000300100400000000004040000000000000000000000000000000000000000000030000000000000006010000000080ADC5
:39341A000000200200000000098B60044804000022008008000000000000000000000000000000000000000000090400000000000010000000000000B19B
:393453000000900800000088040A610484020030420040240000000000000000000000000000000000000000006200000000000000460100000000009711
:39348C0000003C0000000016C00218200F00003C0000F0000000000000000000000000000000000000000000C0030000000000008007000000000000E74F
:3934C5000000100000000018080200000400000000004000000000000000000000000000000000000000000000010000000000000006000000000000FB56
:3934FE00000020120000000001A260118804003005008048000000000000000000000000000000000000000000080100000000000010010000000080F23A
:393537002088B4800600001A4003280C8D0000048000D8000000000000000000000000000000000000000000400900000000000080000000000000809A1C
:393570000000002000000000000000000008000000000080000000000000000000000000000000000000000000820000000000000000000000000000F9FF
:3935A9000000300000000000000000200C0000300000C000000000000000000000000000000000000000000000030000000000000006000000000000C1D3
:3935E20004910040260800180588000240080030001001140000000000000000000000000000000000000000000004000000000000100200000000A0CEE5
:39361B000C05000116000018111364004000003000200004000000000000000000000000000000000000000000110000000000000046000000000080C380
:39365400E0413C9001010006C00378200F04003C9001F4400000000000000000000000000000000000000000C0020100000000008007010000000080828C
:39368D008801101000010000000002000400000000004040000000000000000000000000000000000000000000010000000000000000040000000010C1FE
:3936C6008051200246000058041340404804000020028808000000000000000000000000000000000000000000120100000000000046000000000080BE0E
:3936FF002004368000000002401309000D0000048110D000000000000000000000000000000000000000000040130400000000008000000000000000C849
:393738000000000000000000000100000000002008020400000000000000000000000000000000000000000000000000000000000000000000000000A485
:3937710080800008060400180000600000020010100000200000000000000000000000000000000000000000000300000000000000060000000000009BAF
:3937AA000410300220000018020864402C0000200240C804000000000000000000000000000000000000000000400000000000000010080000000090C1B7
:3937E3008C51301216000080106300420C0800100210C8080000000000000000000000000000000000000000001000000000000000160000000000B0DE89
:39381C00E0010C800701001EC00378000300003C900130400000000000000000000000000000000000000000C0030100000000008007010000000080E3B6
:393855008801000000010000000200000000001000040220000000000000000000000000000000000000000000010000000000000000040000000020E073
:39388E000091300A16000058040B61118C0200201240C00200000000000000000000000000000000000000000012010000000000004600000000000082AA
:3938C7002084048046000002409108000100003492821002000000000000000000000000000000000000000040910000000000008020000000000000D8DB
:393900000000000000010000000200000000000000000080000000000000000000000000000000000000000000020000000000000004010000000000996B
:393939000001300002000018000362100C0400300000C100000000000000000000000000000000000000000000010100000000000006040000000080EB1D
:393972000888000544010018100000048C0000001140C000010000000000000000000000000000000000000000220000000000000044000000000020A84A
:3939AB008009300110020080101100044008000001048142000000000000000000000000000000000000000000A00000000000000012000000000080A38D
:3939E40060413C880700001EC00279200F00003C9007B0000000000000000000000000000000000000000000C0030000000000008007010000000080A0C8
:393A1D0084410020000100000001600000000010100482000000000000000000000000000000000000000000000300000000000000020100000000909855
:393A56008011300226000018051261118C02002002228024000000000000000000000000000000000000000000080400000000000010000000000080A3F8
:393A8F00B00104800010000242230C000100003480105102000000000000000000000000000000000000000040890000000000008006000000000040FEA1
:393AC8000000000000000000000000000000000000040020000000000000000000000000000000000000000000020000000000000000010000000080DC42
:393B01000040300006C00000080360000C02000000000100000000000000000000000000000000000000000000030000000000000002010000000080AFA6
:393B3A008C09004040C800500020642220000000090000440000000000000000000000000000000000000000000002000000000000440000000000B0F527
:393B73008421300926C1009004100042000800300000C024000000000000000000000000000000000000000000110000000000000040000000000090DA97
:393BAC0060003C8007F0801EC00379000F00003C9001B4000000000000000000000000000000000000000000C0020100000000008007010000000080E7B1
:393BE5000C40002000014018000100100C0000000000C440000000000000000000000000000000000000000000010000000000000004040000000030D8B0
:393C1E008005300216000818041261048C0200302010C0020000000000000000000000000000000000000000001201000000000000420000000000009868
:393C57002044948000102802401309000100001480C01000000000000000000000000000000000000000000040090400000000008000000000000000AF45
:393C90000001000800000000000100000000001010020000000000000000000000000000000000000000000000020000000000000000000000000000E8E5
:393CC9008000000000000018000060000C0000000000C000000000000000000000000000000000000000000000010000000000000006020000000080A5D0
:393D02000891001100C01018000864004C0800002040C204010000000000000000000000000000000000000000420000000000000040000000000020FF6E
:393D3B000088B008064102180163600840080000064000840000000000000000000000000000000000000000001100000000000000160100000000008424
:393D740060012C800730801ED00378000F00000C8001F4000000000000000000000000000000000000000000C0020100000000008007000000000000B857
:393DAD008480301000C20000000200000002002000000420000000000000000000000000000000000000000000000000000000000000040000000090BD3E
:393DE6000005B00010808000020B01822C0000A01000C002000000000000000000000000000000000000000000130100000000000046000000000000FC5B
:393E1F003000048000D000424400680001A1010482021400000000000000000000000000000000000000000040000000000000008000000000000080ADCC
:393E58000000002000C00000000000000080010008000000000000000000000000000000000000000000000000000000000000000000000000000000BA0E
:393E9100000030000600000800030000000400300000C0200000000000000000000000000000000000000000000300000000000000060000000000009CFE
:393ECA008C11312220080008110300802800003009A00004000000000000000000000000000000000000000000030000000000000080000000000010CEA5
:393F03008411A01010C0001800136408888211A2104601080000000000000000000000000000000000000000000000000000000000460100000000B0883E
:393F3C00E0412C8007F1801EC40378000FE0012C8005F0400000000000000000000000000000000000000000C0000100000000008007000000000000CAC7
:393F75008C81200006C14010080002000C8001200006C220000000000000000000000000000000000000000000000000000000000000040000000020FA12
:393FAE000004200946C00850001060822C8229A00816C002000000000000000000000000000000000000000000200100000000000046000000000000BEE1
:393FE7003040048000D00002400368224130008488061000000000000000000000000000000000000000000040000000000000008010000000000080CD5E
:394020000001000000000000000242000000000000000000000000000000000000000000000000000000000000000000000000000000010000000080AEF3
:39405900800030080000001800812000048001000006C0000000000000000000000000000000000000000000000300000000000000020100000000008EDE
:394092000C91000200000201050A4010249001004200C11400000000000000000000000000000000000000000093000000000000001000000000002089DC
:3940CB000488001226C20000111364080C80119210260084000000000000000000000000000000000000000000A00000000000000040000000000000F6E7
:3941040060013C8007F0801EC00378000FE2010C8007F1000000000000000000000000000000000000000000C0030000000000008005010000000000D501
:39413D008C80300000004018000122000804000000000220000000000000000000000000000000000000000000000000000000000006010000000090BB12
:394176000005300A40C2085804136082280028002116C0040000000000000000000000000000000000000000008300000000000000060000000000009B07
:3941AF0000000000000000000000000000000000000000000000000000000000000000000000000000000000000000000000000000000000000000C0BD5A
:3941E8002000048000100002400008000120000480001000000000000000000000000000000000800010000240000800012000048000100002400080F9A1
:394221000000000000000000000000000000000000000000000000000000000000000000000000000000000000000000000000000000000000000080F9EB
:39425A0024000480001000024000080001200004800010000000000000000000000000000000008000100002400008000120000480001000024000B08E65
:394293000C00000000000000000000000000000000000000000000000000000000000000000000000000000000000000000000000000000000000010AC2A
:3942CC002000048000100002400008000120000480001000000000000000000000000000000000800010000240000800012000048000100002400080F9BC
:394305000800000000000000000000000000000000000000000000000000000000000000000000000000000000000000000000000000000000000030CA7D
:39433E002000048000100002400008000120000480001000000000000000000000000000000000800010000240000800012000048000100002400080F949
:394377000000000000000000000000000000000000100000000000000000000000000000000000000000000000000000000000000000000000000080E994
:3943B0000000000000000000000000000000000000000000000000000000000000000000000000000000000000000000000000000000000000000080F95B
:3943E9000000000000000000000000000000000000000000000000000000000000000000000000000000000000000000000000000000000000000080F922
:394422000000000800000000000880000000004000100000000000000000000000000000000000000000000000000000000000000000000000000000ED94
:39445B000000000000000000000000000000000000000001000000000000000000000000000000000000000000000000000000000000000000000080E9BE
:394494000000000000000000000000000000000000000000000000000000000000000000000000000000000000000000000000000000000000000080F976
:3944CD000000000000000000000000000000000000000000000000000000000000000000000000000000000000000000000000000000000000000080F93D
:394506000000000000000000000000100000000000000000000000000000000000000000000000000000000000000000000000000000000000000008E183
:39453F000000000000000000005000400000000000000000000000000000000000000000000000000000000000000000000000000000000000000080BC77
:3945780002000000020000100300600000000000080A0000000000000000000000000000000000000000002800000000000000000004000000000080CF06
:3945B1000000000002000000000040000000000020020000000000000000000000000000000000000000000800000000000000000000000000000000BDA8
:3945EA000000000000000010040020000000000000000000000000000000000000000000000000000000000000000000000000000002000000000008E674
:394623000000000800000000000000000000000008000000000000000000000000000000000000000000000000000000000000000000000000000080F1DD
:39465C000000000000000000000000000000000000000000000000000000000000000000000000000000000000000000000000000000000000000080F9AC
:394695000000000000000000000000000000000000000000000000000000000000000000000000000000000000000000000000000000000000000080F973
:3946CE000000000000400000000000000400000000000000000000000000000000000000000000000000000000000000000000000000000000000080FDF2
:394707000000000000000000000000000000000080000000000000000000000000000000000000000000000000000100000000000000000000000000E810
:3947400000000400000000000000000000200004000000000000000000000000000000000000000000000000000000000000000000000000000000809BFD
:394779000001200004000010000200000800002000008000000000000000000000000000000000000000000000020000000000000000000000000000B274
:3947B2008000100002000008000600001000003000004000000000000000000000000000000000000000000000060000000000000004000000000000EFB5
:3947EB000000020000000000400014000000000400000800000000000000000000000000000000000000000040000400000000008000080000000000AEB9
:394824002000002000080000000106000000000120020000000000000000000000000000000000000000000000010400000000000002000000000080D48E
:39485D000400000002000008040020100400400000000000000000000000000000000000000000000000000000000000000000000000000000000000A7F5
:394896000000000000010000000000000080000000020100000000000000000000000000000000000000000800000000000000000000410000000080AAF2
:3948CF001800A000010400040800102002208000800004000000000000000000000000000000000000000002000000000000000000001400000000A0E5F6
:394908008C730052A640104804E1400A02000D200A310018000000000000000000000000000000000000006800000000000000000000000200000080C686
:394941004020000001400008048100000000000008000000000000000000000000000000000000000000000800000000000000000000000000000000926D
:39497A008040000002012000004020100080001000000020000000000000000000000000000000000000000000000000000000000000000000000000837E
:3949B3008000100002000008000180400400001000024080000000000000000000000000000000000000000000000000000000000000000000000000DBBF
:3949EC000002401000002002000021000110000090000C01000000000000000000000000000000000000000000000000000000000000000000000080CD02
:394A25000000000000100003040000200010000010010000000000000000000000000000000000000000000000000000000000000000000000000080FC84
:394A5E0000000800000040000000004000040000400000C0000000000000000000000000000000000000000000000000000000000000000000000000F59E
:394A970002000000000400000000000020000000000000000000000000000000000000000000000000000000000000000000000000000000000000A0FF21
:394AD0000000000400000000020000080001000000000010000000000000000000000000000000000000000000000000000000000080000000000000B658
:394B09000000000000000000000000000000004000040200000000000000000000000000000000000000000000000000000000000000000000000080DBD2
:394B42000800000000000000000008000000000800001000000000000000000000000000000000000000000000000200000000000000000000000000D23E
:394B7B000000000000000000000008000000000000000400000000000000000000000000000000000000000000000000000000000000000000000000B540
:394BB400000000000000004000000000000000000000020000000000000000000000000000000000000000000000000000000000000000000000000897E7
:394BED000040000010004000080800000004000000800100000000000000000000000000000000000000000000000000000000000000000000000080F9F1
:394C26000000000000000000000000000000000000000120000000000000000000000000000000000000000000000000000000000000000000000080CAEA
:394C5F000000040000000000000000000000000000000000000000000000000000000000000000000000000000000000000000000000000000000080FD9B
:394C98000000200000000000000000000000000000000000000000000000000000000000000000000000000000000000000000000000000000000080D96A
:394CD1000000000000000000000000000000000000000000000000000000000000000000000000000000000000000000000000000000000000000080F931
:394D0A000000000000000000000000000000000000000000000000000000000000000000000000000000000000000000000000000000000000000080F9F7
:394D4300002DE00254000920015480049000124002480009000000000000000000000000000000004800092001248004900012400248000920012400C445
:394D7C00A0619181260006C000C8020360000C800130000600000000000000000000000000000000300006C00018000360000C8001300006C0001800887B
:024DB500FFFFFE
:00000001FF
